{
  "contractName": "Adversary",
  "abi": [
    {
      "constant": false,
      "inputs": [
        {
          "name": "_address",
          "type": "address"
        }
      ],
      "name": "setDaiContractAddress",
      "outputs": [],
      "payable": false,
      "stateMutability": "nonpayable",
      "type": "function"
    },
    {
      "constant": true,
      "inputs": [
        {
          "name": "",
          "type": "uint256"
        }
      ],
      "name": "offerIds",
      "outputs": [
        {
          "name": "",
          "type": "uint64"
        }
      ],
      "payable": false,
      "stateMutability": "view",
      "type": "function"
    },
    {
      "constant": true,
      "inputs": [],
      "name": "createEscrowGasLimit",
      "outputs": [
        {
          "name": "",
          "type": "uint256"
        }
      ],
      "payable": false,
      "stateMutability": "view",
      "type": "function"
    },
    {
      "constant": true,
      "inputs": [
        {
          "name": "",
          "type": "uint64"
        }
      ],
      "name": "offers",
      "outputs": [
        {
          "name": "maker",
          "type": "address"
        },
        {
          "name": "makerIsLong",
          "type": "bool"
        },
        {
          "name": "currency",
          "type": "string"
        },
        {
          "name": "dai",
          "type": "uint256"
        },
        {
          "name": "listIndex",
          "type": "uint256"
        }
      ],
      "payable": false,
      "stateMutability": "view",
      "type": "function"
    },
    {
      "constant": true,
      "inputs": [
        {
          "name": "",
          "type": "uint64"
        }
      ],
      "name": "escrows",
      "outputs": [
        {
          "name": "maker",
          "type": "address"
        },
        {
          "name": "taker",
          "type": "address"
        },
        {
          "name": "makerIsLong",
          "type": "bool"
        },
        {
          "name": "currency",
          "type": "string"
        },
        {
          "name": "dai",
          "type": "uint256"
        },
        {
          "name": "listIndex",
          "type": "uint256"
        },
        {
          "name": "startPriceCents",
          "type": "uint256"
        }
      ],
      "payable": false,
      "stateMutability": "view",
      "type": "function"
    },
    {
      "constant": true,
      "inputs": [
        {
          "name": "",
          "type": "bytes32"
        }
      ],
      "name": "pendingClaims",
      "outputs": [
        {
          "name": "claimer",
          "type": "address"
        },
        {
          "name": "escrowId",
          "type": "uint64"
        }
      ],
      "payable": false,
      "stateMutability": "view",
      "type": "function"
    },
    {
      "constant": true,
      "inputs": [
        {
          "name": "",
          "type": "uint256"
        }
      ],
      "name": "escrowIds",
      "outputs": [
        {
          "name": "",
          "type": "uint64"
        }
      ],
      "payable": false,
      "stateMutability": "view",
      "type": "function"
    },
    {
      "constant": true,
      "inputs": [
        {
          "name": "",
          "type": "bytes32"
        }
      ],
      "name": "pendingTakes",
      "outputs": [
        {
          "name": "taker",
          "type": "address"
        },
        {
          "name": "offerId",
          "type": "uint64"
        }
      ],
      "payable": false,
      "stateMutability": "view",
      "type": "function"
    },
    {
      "constant": true,
      "inputs": [],
      "name": "owner",
      "outputs": [
        {
          "name": "",
          "type": "address"
        }
      ],
      "payable": false,
      "stateMutability": "view",
      "type": "function"
    },
    {
      "constant": true,
      "inputs": [],
      "name": "margin",
      "outputs": [
        {
          "name": "",
          "type": "uint256"
        }
      ],
      "payable": false,
      "stateMutability": "view",
      "type": "function"
    },
    {
      "constant": true,
      "inputs": [],
      "name": "daiDecimals",
      "outputs": [
        {
          "name": "",
          "type": "uint256"
        }
      ],
      "payable": false,
      "stateMutability": "view",
      "type": "function"
    },
    {
      "constant": true,
      "inputs": [],
      "name": "minimumDai",
      "outputs": [
        {
          "name": "",
          "type": "uint256"
        }
      ],
      "payable": false,
      "stateMutability": "view",
      "type": "function"
    },
    {
      "constant": true,
      "inputs": [],
      "name": "claimEscrowGasLimit",
      "outputs": [
        {
          "name": "",
          "type": "uint256"
        }
      ],
      "payable": false,
      "stateMutability": "view",
      "type": "function"
    },
    {
      "constant": true,
      "inputs": [],
      "name": "currentId",
      "outputs": [
        {
          "name": "",
          "type": "uint64"
        }
      ],
      "payable": false,
      "stateMutability": "view",
      "type": "function"
    },
    {
      "constant": false,
      "inputs": [
        {
          "name": "newOwner",
          "type": "address"
        }
      ],
      "name": "transferOwnership",
      "outputs": [],
      "payable": false,
      "stateMutability": "nonpayable",
      "type": "function"
    },
    {
      "anonymous": false,
      "inputs": [],
      "name": "NewOffer",
      "type": "event"
    },
    {
      "anonymous": false,
      "inputs": [],
      "name": "OfferDeleted",
      "type": "event"
    },
    {
      "anonymous": false,
      "inputs": [],
      "name": "NewEscrow",
      "type": "event"
    },
    {
      "anonymous": false,
      "inputs": [],
      "name": "TradeCompleted",
      "type": "event"
    },
    {
      "anonymous": false,
      "inputs": [
        {
          "indexed": false,
          "name": "price",
          "type": "string"
        }
      ],
      "name": "LogPriceUpdated",
      "type": "event"
    },
    {
      "anonymous": false,
      "inputs": [
        {
          "indexed": false,
          "name": "description",
          "type": "string"
        }
      ],
      "name": "LogNewOraclizeQuery",
      "type": "event"
    },
    {
      "anonymous": false,
      "inputs": [
        {
          "indexed": true,
          "name": "previousOwner",
          "type": "address"
        },
        {
          "indexed": true,
          "name": "newOwner",
          "type": "address"
        }
      ],
      "name": "OwnershipTransferred",
      "type": "event"
    },
    {
      "constant": false,
      "inputs": [
        {
          "name": "priceInWei",
          "type": "uint256"
        }
      ],
      "name": "setOracleResponseGasPrice",
      "outputs": [],
      "payable": false,
      "stateMutability": "nonpayable",
      "type": "function"
    },
    {
      "constant": false,
      "inputs": [
        {
          "name": "_long",
          "type": "bool"
        },
        {
          "name": "_currency",
          "type": "string"
        },
        {
          "name": "_dai",
          "type": "uint256"
        }
      ],
      "name": "createOffer",
      "outputs": [],
      "payable": false,
      "stateMutability": "nonpayable",
      "type": "function"
    },
    {
      "constant": false,
      "inputs": [
        {
          "name": "_offerId",
          "type": "uint64"
        }
      ],
      "name": "deleteOffer",
      "outputs": [],
      "payable": false,
      "stateMutability": "nonpayable",
      "type": "function"
    },
    {
      "constant": false,
      "inputs": [
        {
          "name": "_offerId",
          "type": "uint64"
        }
      ],
      "name": "createEscrow",
      "outputs": [],
      "payable": false,
      "stateMutability": "nonpayable",
      "type": "function"
    },
    {
      "constant": false,
      "inputs": [
        {
          "name": "_offerId",
          "type": "uint64"
        }
      ],
      "name": "claimEscrow",
      "outputs": [],
      "payable": false,
      "stateMutability": "nonpayable",
      "type": "function"
    },
    {
      "constant": false,
      "inputs": [
        {
          "name": "myid",
          "type": "bytes32"
        },
        {
          "name": "result",
          "type": "string"
        }
      ],
      "name": "__callback",
      "outputs": [],
      "payable": false,
      "stateMutability": "nonpayable",
      "type": "function"
    },
    {
      "constant": false,
      "inputs": [
        {
          "name": "myid",
          "type": "bytes32"
        },
        {
          "name": "result",
          "type": "string"
        },
        {
          "name": "proof",
          "type": "bytes"
        }
      ],
      "name": "__callback",
      "outputs": [],
      "payable": false,
      "stateMutability": "nonpayable",
      "type": "function"
    }
  ],
  "bytecode": "0x608060405260026007556012600855600854600a0a60095562030d40600a5562030d40600b556001600e60006101000a81548167ffffffffffffffff021916908367ffffffffffffffff160217905550336000806101000a81548173ffffffffffffffffffffffffffffffffffffffff021916908373ffffffffffffffffffffffffffffffffffffffff16021790555061462a8061009e6000396000f300608060405260043610610128576000357c0100000000000000000000000000000000000000000000000000000000900463ffffffff168063040e0d311461012d578063110b9d891461017057806327d7c949146101c557806327dc297e146101f0578063298a8f55146102675780632ebb620c1461029457806336c1cdd91461039057806338bbfa501461040f578063412bca83146104cc578063501cb96f146105035780635e86f50614610639578063786f1295146106c55780637ea3721b1461071a57806387856fe2146107515780638da5cb5b146107dd5780638e36a277146108345780638f76691a1461086b57806395638ccd14610896578063a2b7b1c5146108c1578063ca87a907146108ec578063e00dd16114610917578063f2fde38b14610956575b600080fd5b34801561013957600080fd5b5061016e600480360381019080803573ffffffffffffffffffffffffffffffffffffffff169060200190929190505050610999565b005b34801561017c57600080fd5b5061019b60048036038101908080359060200190929190505050610a38565b604051808267ffffffffffffffff1667ffffffffffffffff16815260200191505060405180910390f35b3480156101d157600080fd5b506101da610a75565b6040518082815260200191505060405180910390f35b3480156101fc57600080fd5b506102656004803603810190808035600019169060200190929190803590602001908201803590602001908080601f0160208091040260200160405190810160405280939291908181526020018383808284378201915050505050509192919290505050610a7b565b005b34801561027357600080fd5b5061029260048036038101908080359060200190929190505050610cc2565b005b3480156102a057600080fd5b506102c9600480360381019080803567ffffffffffffffff169060200190929190505050610d29565b604051808673ffffffffffffffffffffffffffffffffffffffff1673ffffffffffffffffffffffffffffffffffffffff1681526020018515151515815260200180602001848152602001838152602001828103825285818151815260200191508051906020019080838360005b83811015610351578082015181840152602081019050610336565b50505050905090810190601f16801561037e5780820380516001836020036101000a031916815260200191505b50965050505050505060405180910390f35b34801561039c57600080fd5b5061040d600480360381019080803515159060200190929190803590602001908201803590602001908080601f016020809104026020016040519081016040528093929190818152602001838380828437820191505050505050919291929080359060200190929190505050610e24565b005b34801561041b57600080fd5b506104ca6004803603810190808035600019169060200190929190803590602001908201803590602001908080601f0160208091040260200160405190810160405280939291908181526020018383808284378201915050505050509192919290803590602001908201803590602001908080601f0160208091040260200160405190810160405280939291908181526020018383808284378201915050505050509192919290505050611040565b005b3480156104d857600080fd5b50610501600480360381019080803567ffffffffffffffff169060200190929190505050611045565b005b34801561050f57600080fd5b50610538600480360381019080803567ffffffffffffffff16906020019092919050505061110a565b604051808873ffffffffffffffffffffffffffffffffffffffff1673ffffffffffffffffffffffffffffffffffffffff1681526020018773ffffffffffffffffffffffffffffffffffffffff1673ffffffffffffffffffffffffffffffffffffffff1681526020018615151515815260200180602001858152602001848152602001838152602001828103825286818151815260200191508051906020019080838360005b838110156105f85780820151818401526020810190506105dd565b50505050905090810190601f1680156106255780820380516001836020036101000a031916815260200191505b509850505050505050505060405180910390f35b34801561064557600080fd5b506106686004803603810190808035600019169060200190929190505050611231565b604051808373ffffffffffffffffffffffffffffffffffffffff1673ffffffffffffffffffffffffffffffffffffffff1681526020018267ffffffffffffffff1667ffffffffffffffff1681526020019250505060405180910390f35b3480156106d157600080fd5b506106f060048036038101908080359060200190929190505050611289565b604051808267ffffffffffffffff1667ffffffffffffffff16815260200191505060405180910390f35b34801561072657600080fd5b5061074f600480360381019080803567ffffffffffffffff1690602001909291905050506112c6565b005b34801561075d57600080fd5b5061078060048036038101908080356000191690602001909291905050506116da565b604051808373ffffffffffffffffffffffffffffffffffffffff1673ffffffffffffffffffffffffffffffffffffffff1681526020018267ffffffffffffffff1667ffffffffffffffff1681526020019250505060405180910390f35b3480156107e957600080fd5b506107f2611732565b604051808273ffffffffffffffffffffffffffffffffffffffff1673ffffffffffffffffffffffffffffffffffffffff16815260200191505060405180910390f35b34801561084057600080fd5b50610869600480360381019080803567ffffffffffffffff169060200190929190505050611757565b005b34801561087757600080fd5b50610880611b6b565b6040518082815260200191505060405180910390f35b3480156108a257600080fd5b506108ab611b71565b6040518082815260200191505060405180910390f35b3480156108cd57600080fd5b506108d6611b77565b6040518082815260200191505060405180910390f35b3480156108f857600080fd5b50610901611b7d565b6040518082815260200191505060405180910390f35b34801561092357600080fd5b5061092c611b83565b604051808267ffffffffffffffff1667ffffffffffffffff16815260200191505060405180910390f35b34801561096257600080fd5b50610997600480360381019080803573ffffffffffffffffffffffffffffffffffffffff169060200190929190505050611b9d565b005b6000809054906101000a900473ffffffffffffffffffffffffffffffffffffffff1673ffffffffffffffffffffffffffffffffffffffff163373ffffffffffffffffffffffffffffffffffffffff161415156109f457600080fd5b80600160006101000a81548173ffffffffffffffffffffffffffffffffffffffff021916908373ffffffffffffffffffffffffffffffffffffffff16021790555050565b600c81815481101515610a4757fe5b9060005260206000209060049182820401919006600802915054906101000a900467ffffffffffffffff1681565b600a5481565b610a83611cf2565b73ffffffffffffffffffffffffffffffffffffffff163373ffffffffffffffffffffffffffffffffffffffff16141515610abc57600080fd5b600060116000846000191660001916815260200190815260200160002060000160149054906101000a900467ffffffffffffffff1667ffffffffffffffff16141515610bbe57610bb96011600084600019166000191681526020019081526020016000206040805190810160405290816000820160009054906101000a900473ffffffffffffffffffffffffffffffffffffffff1673ffffffffffffffffffffffffffffffffffffffff1673ffffffffffffffffffffffffffffffffffffffff1681526020016000820160149054906101000a900467ffffffffffffffff1667ffffffffffffffff1667ffffffffffffffff168152505082612054565b610cbd565b600060126000846000191660001916815260200190815260200160002060000160149054906101000a900467ffffffffffffffff1667ffffffffffffffff16141515610cbc57610cbb6012600084600019166000191681526020019081526020016000206040805190810160405290816000820160009054906101000a900473ffffffffffffffffffffffffffffffffffffffff1673ffffffffffffffffffffffffffffffffffffffff1673ffffffffffffffffffffffffffffffffffffffff1681526020016000820160149054906101000a900467ffffffffffffffff1667ffffffffffffffff1667ffffffffffffffff16815250508261248f565b5b5b600080fd5b6000809054906101000a900473ffffffffffffffffffffffffffffffffffffffff1673ffffffffffffffffffffffffffffffffffffffff163373ffffffffffffffffffffffffffffffffffffffff16141515610d1d57600080fd5b610d268161279d565b50565b600f6020528060005260406000206000915090508060000160009054906101000a900473ffffffffffffffffffffffffffffffffffffffff16908060000160149054906101000a900460ff1690806001018054600181600116156101000203166002900480601f016020809104026020016040519081016040528092919081815260200182805460018160011615610100020316600290048015610e0e5780601f10610de357610100808354040283529160200191610e0e565b820191906000526020600020905b815481529060010190602001808311610df157829003601f168201915b5050505050908060020154908060030154905085565b6009548110151515610e3557600080fd5b610e40333083612ae4565b60a0604051908101604052803373ffffffffffffffffffffffffffffffffffffffff16815260200184151581526020018381526020018281526020016001600c600e60009054906101000a900467ffffffffffffffff16908060018154018082558091505090600182039060005260206000209060049182820401919006600802909192909190916101000a81548167ffffffffffffffff021916908367ffffffffffffffff16021790555003815250600f6000600e60009054906101000a900467ffffffffffffffff1667ffffffffffffffff1667ffffffffffffffff16815260200190815260200160002060008201518160000160006101000a81548173ffffffffffffffffffffffffffffffffffffffff021916908373ffffffffffffffffffffffffffffffffffffffff16021790555060208201518160000160146101000a81548160ff0219169083151502179055506040820151816001019080519060200190610fb09291906143a3565b506060820151816002015560808201518160030155905050600e600081819054906101000a900467ffffffffffffffff168092919060010191906101000a81548167ffffffffffffffff021916908367ffffffffffffffff160217905550507fa00340ea2c49630c646933ad372a70f3ec1d77afaccb71c6fc8ace1c1635723a60405160405180910390a1505050565b505050565b600f60008267ffffffffffffffff1667ffffffffffffffff16815260200190815260200160002060000160009054906101000a900473ffffffffffffffffffffffffffffffffffffffff1673ffffffffffffffffffffffffffffffffffffffff163373ffffffffffffffffffffffffffffffffffffffff161415156110c957600080fd5b6110fe3033600f60008567ffffffffffffffff1667ffffffffffffffff16815260200190815260200160002060020154612ae4565b61110781612c22565b50565b60106020528060005260406000206000915090508060000160009054906101000a900473ffffffffffffffffffffffffffffffffffffffff16908060010160009054906101000a900473ffffffffffffffffffffffffffffffffffffffff16908060010160149054906101000a900460ff1690806002018054600181600116156101000203166002900480601f0160208091040260200160405190810160405280929190818152602001828054600181600116156101000203166002900480156112155780601f106111ea57610100808354040283529160200191611215565b820191906000526020600020905b8154815290600101906020018083116111f857829003601f168201915b5050505050908060030154908060040154908060050154905087565b60126020528060005260406000206000915090508060000160009054906101000a900473ffffffffffffffffffffffffffffffffffffffff16908060000160149054906101000a900467ffffffffffffffff16905082565b600d8181548110151561129857fe5b9060005260206000209060049182820401919006600802915054906101000a900467ffffffffffffffff1681565b60003073ffffffffffffffffffffffffffffffffffffffff163161131e6040805190810160405280600381526020017f55524c0000000000000000000000000000000000000000000000000000000000815250612e0e565b11156113dd577f621c2856e3b87f81235f8ac8a22bbb40a0142961960710d00b2b6c380902b57e60405180806020018281038252604b8152602001807f4f7261636c697a6520717565727920776173204e4f542073656e742c20706c6581526020017f6173652061646420736f6d652045544820746f20636f76657220666f7220746881526020017f652071756572792066656500000000000000000000000000000000000000000081525060600191505060405180910390a16116d6565b7f621c2856e3b87f81235f8ac8a22bbb40a0142961960710d00b2b6c380902b57e6040518080602001828103825260358152602001807f4f7261636c697a65207175657279207761732073656e742c207374616e64696e81526020017f6720627920666f722074686520616e737765722e2e000000000000000000000081525060400191505060405180910390a161160a6040805190810160405280600381526020017f55524c0000000000000000000000000000000000000000000000000000000000815250611602606060405190810160405280602c81526020017f6a736f6e2868747470733a2f2f7777772e6269747374616d702e6e65742f617081526020017f692f76322f7469636b65722f0000000000000000000000000000000000000000815250600f60008767ffffffffffffffff1667ffffffffffffffff1681526020019081526020016000206001018054600181600116156101000203166002900480601f0160208091040260200160405190810160405280929190818152602001828054600181600116156101000203166002900480156115c25780601f10611597576101008083540402835291602001916115c2565b820191906000526020600020905b8154815290600101906020018083116115a557829003601f168201915b50505050506040805190810160405280600d81526020017f6574687573642f292e6c617374000000000000000000000000000000000000008152506131e2565b600a5461321a565b905060408051908101604052803373ffffffffffffffffffffffffffffffffffffffff1681526020018367ffffffffffffffff1681525060126000836000191660001916815260200190815260200160002060008201518160000160006101000a81548173ffffffffffffffffffffffffffffffffffffffff021916908373ffffffffffffffffffffffffffffffffffffffff16021790555060208201518160000160146101000a81548167ffffffffffffffff021916908367ffffffffffffffff1602179055509050505b5050565b60116020528060005260406000206000915090508060000160009054906101000a900473ffffffffffffffffffffffffffffffffffffffff16908060000160149054906101000a900467ffffffffffffffff16905082565b6000809054906101000a900473ffffffffffffffffffffffffffffffffffffffff1681565b60003073ffffffffffffffffffffffffffffffffffffffff16316117af6040805190810160405280600381526020017f55524c0000000000000000000000000000000000000000000000000000000000815250612e0e565b111561186e577f621c2856e3b87f81235f8ac8a22bbb40a0142961960710d00b2b6c380902b57e60405180806020018281038252604b8152602001807f4f7261636c697a6520717565727920776173204e4f542073656e742c20706c6581526020017f6173652061646420736f6d652045544820746f20636f76657220666f7220746881526020017f652071756572792066656500000000000000000000000000000000000000000081525060600191505060405180910390a1611b67565b7f621c2856e3b87f81235f8ac8a22bbb40a0142961960710d00b2b6c380902b57e6040518080602001828103825260358152602001807f4f7261636c697a65207175657279207761732073656e742c207374616e64696e81526020017f6720627920666f722074686520616e737765722e2e000000000000000000000081525060400191505060405180910390a1611a9b6040805190810160405280600381526020017f55524c0000000000000000000000000000000000000000000000000000000000815250611a93606060405190810160405280602c81526020017f6a736f6e2868747470733a2f2f7777772e6269747374616d702e6e65742f617081526020017f692f76322f7469636b65722f0000000000000000000000000000000000000000815250600f60008767ffffffffffffffff1667ffffffffffffffff1681526020019081526020016000206001018054600181600116156101000203166002900480601f016020809104026020016040519081016040528092919081815260200182805460018160011615610100020316600290048015611a535780601f10611a2857610100808354040283529160200191611a53565b820191906000526020600020905b815481529060010190602001808311611a3657829003601f168201915b50505050506040805190810160405280600d81526020017f6574687573642f292e6c617374000000000000000000000000000000000000008152506131e2565b600a5461321a565b905060408051908101604052803373ffffffffffffffffffffffffffffffffffffffff1681526020018367ffffffffffffffff1681525060116000836000191660001916815260200190815260200160002060008201518160000160006101000a81548173ffffffffffffffffffffffffffffffffffffffff021916908373ffffffffffffffffffffffffffffffffffffffff16021790555060208201518160000160146101000a81548167ffffffffffffffff021916908367ffffffffffffffff1602179055509050505b5050565b60075481565b60085481565b60095481565b600b5481565b600e60009054906101000a900467ffffffffffffffff1681565b6000809054906101000a900473ffffffffffffffffffffffffffffffffffffffff1673ffffffffffffffffffffffffffffffffffffffff163373ffffffffffffffffffffffffffffffffffffffff16141515611bf857600080fd5b600073ffffffffffffffffffffffffffffffffffffffff168173ffffffffffffffffffffffffffffffffffffffff1614151515611c3457600080fd5b8073ffffffffffffffffffffffffffffffffffffffff166000809054906101000a900473ffffffffffffffffffffffffffffffffffffffff1673ffffffffffffffffffffffffffffffffffffffff167f8be0079c531659141344cd1fd0a4f28419497f9722a3daafe3b4186f6b6457e060405160405180910390a3806000806101000a81548173ffffffffffffffffffffffffffffffffffffffff021916908373ffffffffffffffffffffffffffffffffffffffff16021790555050565b600080600260009054906101000a900473ffffffffffffffffffffffffffffffffffffffff1673ffffffffffffffffffffffffffffffffffffffff161480611d6457506000611d62600260009054906101000a900473ffffffffffffffffffffffffffffffffffffffff166137ce565b145b15611d7557611d7360006137d9565b505b600260009054906101000a900473ffffffffffffffffffffffffffffffffffffffff1673ffffffffffffffffffffffffffffffffffffffff166338cc48316040518163ffffffff167c0100000000000000000000000000000000000000000000000000000000028152600401602060405180830381600087803b158015611dfb57600080fd5b505af1158015611e0f573d6000803e3d6000fd5b505050506040513d6020811015611e2557600080fd5b810190808051906020019092919050505073ffffffffffffffffffffffffffffffffffffffff16600360009054906101000a900473ffffffffffffffffffffffffffffffffffffffff1673ffffffffffffffffffffffffffffffffffffffff16141515611f8e57600260009054906101000a900473ffffffffffffffffffffffffffffffffffffffff1673ffffffffffffffffffffffffffffffffffffffff166338cc48316040518163ffffffff167c0100000000000000000000000000000000000000000000000000000000028152600401602060405180830381600087803b158015611f1257600080fd5b505af1158015611f26573d6000803e3d6000fd5b505050506040513d6020811015611f3c57600080fd5b8101908080519060200190929190505050600360006101000a81548173ffffffffffffffffffffffffffffffffffffffff021916908373ffffffffffffffffffffffffffffffffffffffff1602179055505b600360009054906101000a900473ffffffffffffffffffffffffffffffffffffffff1673ffffffffffffffffffffffffffffffffffffffff1663c281d19e6040518163ffffffff167c0100000000000000000000000000000000000000000000000000000000028152600401602060405180830381600087803b15801561201457600080fd5b505af1158015612028573d6000803e3d6000fd5b505050506040513d602081101561203e57600080fd5b8101908080519060200190929190505050905090565b61205c614423565b600f6000846020015167ffffffffffffffff1667ffffffffffffffff16815260200190815260200160002060a060405190810160405290816000820160009054906101000a900473ffffffffffffffffffffffffffffffffffffffff1673ffffffffffffffffffffffffffffffffffffffff1673ffffffffffffffffffffffffffffffffffffffff1681526020016000820160149054906101000a900460ff16151515158152602001600182018054600181600116156101000203166002900480601f01602080910402602001604051908101604052809291908181526020018280546001816001161561010002031660029004801561219d5780601f106121725761010080835404028352916020019161219d565b820191906000526020600020905b81548152906001019060200180831161218057829003601f168201915b50505050508152602001600282015481526020016003820154815250509050600081606001511115156121cf57600080fd5b6121e28360000151308360600151612ae4565b60e060405190810160405280826000015173ffffffffffffffffffffffffffffffffffffffff168152602001846000015173ffffffffffffffffffffffffffffffffffffffff168152602001826020015115158152602001826040015181526020016032606384606001510281151561225757fe5b0481526020016001600d600e60009054906101000a900467ffffffffffffffff16908060018154018082558091505090600182039060005260206000209060049182820401919006600802909192909190916101000a81548167ffffffffffffffff021916908367ffffffffffffffff1602179055500381526020016122de8460646137ea565b81525060106000600e60009054906101000a900467ffffffffffffffff1667ffffffffffffffff1667ffffffffffffffff16815260200190815260200160002060008201518160000160006101000a81548173ffffffffffffffffffffffffffffffffffffffff021916908373ffffffffffffffffffffffffffffffffffffffff16021790555060208201518160010160006101000a81548173ffffffffffffffffffffffffffffffffffffffff021916908373ffffffffffffffffffffffffffffffffffffffff16021790555060408201518160010160146101000a81548160ff02191690831515021790555060608201518160020190805190602001906123e89291906143a3565b506080820151816003015560a0820151816004015560c08201518160050155905050600e600081819054906101000a900467ffffffffffffffff168092919060010191906101000a81548167ffffffffffffffff021916908367ffffffffffffffff1602179055505061245e8360200151612c22565b7fbeaf66fc056ca47252dc3b4d3dfdc7d09e7e956b51402a9a08ae0096a4ce28b960405160405180910390a1505050565b61249761446b565b600080600060106000876020015167ffffffffffffffff1667ffffffffffffffff16815260200190815260200160002060e060405190810160405290816000820160009054906101000a900473ffffffffffffffffffffffffffffffffffffffff1673ffffffffffffffffffffffffffffffffffffffff1673ffffffffffffffffffffffffffffffffffffffff1681526020016001820160009054906101000a900473ffffffffffffffffffffffffffffffffffffffff1673ffffffffffffffffffffffffffffffffffffffff1673ffffffffffffffffffffffffffffffffffffffff1681526020016001820160149054906101000a900460ff16151515158152602001600282018054600181600116156101000203166002900480601f0160208091040260200160405190810160405280929190818152602001828054600181600116156101000203166002900480156126335780601f1061260857610100808354040283529160200191612633565b820191906000526020600020905b81548152906001019060200180831161261657829003601f168201915b5050505050815260200160038201548152602001600482015481526020016005820154815250509350836000015173ffffffffffffffffffffffffffffffffffffffff16866000015173ffffffffffffffffffffffffffffffffffffffff1614806126d15750836020015173ffffffffffffffffffffffffffffffffffffffff16866000015173ffffffffffffffffffffffffffffffffffffffff16145b15156126dc57600080fd5b6126e78560646137ea565b92508360c001516002028460c001516007548660c001518603020185608001510281151561271157fe5b04915081846080015103905083604001511561274a5761273630856000015184612ae4565b61274530856020015183612ae4565b612769565b61275930856000015183612ae4565b61276830856020015184612ae4565b5b7f15c9cc77e4f5c4d922d392856a540ac1aede4d79990e73c321ae1ce4309c76e260405160405180910390a1505050505050565b6000600260009054906101000a900473ffffffffffffffffffffffffffffffffffffffff1673ffffffffffffffffffffffffffffffffffffffff16148061280e5750600061280c600260009054906101000a900473ffffffffffffffffffffffffffffffffffffffff166137ce565b145b1561281f5761281d60006137d9565b505b600260009054906101000a900473ffffffffffffffffffffffffffffffffffffffff1673ffffffffffffffffffffffffffffffffffffffff166338cc48316040518163ffffffff167c0100000000000000000000000000000000000000000000000000000000028152600401602060405180830381600087803b1580156128a557600080fd5b505af11580156128b9573d6000803e3d6000fd5b505050506040513d60208110156128cf57600080fd5b810190808051906020019092919050505073ffffffffffffffffffffffffffffffffffffffff16600360009054906101000a900473ffffffffffffffffffffffffffffffffffffffff1673ffffffffffffffffffffffffffffffffffffffff16141515612a3857600260009054906101000a900473ffffffffffffffffffffffffffffffffffffffff1673ffffffffffffffffffffffffffffffffffffffff166338cc48316040518163ffffffff167c0100000000000000000000000000000000000000000000000000000000028152600401602060405180830381600087803b1580156129bc57600080fd5b505af11580156129d0573d6000803e3d6000fd5b505050506040513d60208110156129e657600080fd5b8101908080519060200190929190505050600360006101000a81548173ffffffffffffffffffffffffffffffffffffffff021916908373ffffffffffffffffffffffffffffffffffffffff1602179055505b600360009054906101000a900473ffffffffffffffffffffffffffffffffffffffff1673ffffffffffffffffffffffffffffffffffffffff1663ca6ad1e4826040518263ffffffff167c010000000000000000000000000000000000000000000000000000000002815260040180828152602001915050600060405180830381600087803b158015612ac957600080fd5b505af1158015612add573d6000803e3d6000fd5b5050505050565b6000600160009054906101000a900473ffffffffffffffffffffffffffffffffffffffff1673ffffffffffffffffffffffffffffffffffffffff166323b872dd8585856040518463ffffffff167c0100000000000000000000000000000000000000000000000000000000028152600401808473ffffffffffffffffffffffffffffffffffffffff1673ffffffffffffffffffffffffffffffffffffffff1681526020018373ffffffffffffffffffffffffffffffffffffffff1673ffffffffffffffffffffffffffffffffffffffff1681526020018281526020019350505050602060405180830381600087803b158015612bdf57600080fd5b505af1158015612bf3573d6000803e3d6000fd5b505050506040513d6020811015612c0957600080fd5b8101908080519060200190929190505050905050505050565b6000600f60008367ffffffffffffffff1667ffffffffffffffff168152602001908152602001600020600301549050600c6001600c8054905003815481101515612c6857fe5b90600052602060002090600491828204019190066008029054906101000a900467ffffffffffffffff16600c82815481101515612ca157fe5b90600052602060002090600491828204019190066008026101000a81548167ffffffffffffffff021916908367ffffffffffffffff160217905550600c805480919060019003612cf191906144d7565b50600f60008367ffffffffffffffff1667ffffffffffffffff168152602001908152602001600020600080820160006101000a81549073ffffffffffffffffffffffffffffffffffffffff02191690556000820160146101000a81549060ff0219169055600182016000612d659190614511565b60028201600090556003820160009055505080600f6000600c84815481101515612d8b57fe5b90600052602060002090600491828204019190066008029054906101000a900467ffffffffffffffff1667ffffffffffffffff1667ffffffffffffffff168152602001908152602001600020600301819055507f43e051903ae6ef503eb9da05359c07dd9c918fdb1eeb619b712bb0d0982787b660405160405180910390a15050565b600080600260009054906101000a900473ffffffffffffffffffffffffffffffffffffffff1673ffffffffffffffffffffffffffffffffffffffff161480612e8057506000612e7e600260009054906101000a900473ffffffffffffffffffffffffffffffffffffffff166137ce565b145b15612e9157612e8f60006137d9565b505b600260009054906101000a900473ffffffffffffffffffffffffffffffffffffffff1673ffffffffffffffffffffffffffffffffffffffff166338cc48316040518163ffffffff167c0100000000000000000000000000000000000000000000000000000000028152600401602060405180830381600087803b158015612f1757600080fd5b505af1158015612f2b573d6000803e3d6000fd5b505050506040513d6020811015612f4157600080fd5b810190808051906020019092919050505073ffffffffffffffffffffffffffffffffffffffff16600360009054906101000a900473ffffffffffffffffffffffffffffffffffffffff1673ffffffffffffffffffffffffffffffffffffffff161415156130aa57600260009054906101000a900473ffffffffffffffffffffffffffffffffffffffff1673ffffffffffffffffffffffffffffffffffffffff166338cc48316040518163ffffffff167c0100000000000000000000000000000000000000000000000000000000028152600401602060405180830381600087803b15801561302e57600080fd5b505af1158015613042573d6000803e3d6000fd5b505050506040513d602081101561305857600080fd5b8101908080519060200190929190505050600360006101000a81548173ffffffffffffffffffffffffffffffffffffffff021916908373ffffffffffffffffffffffffffffffffffffffff1602179055505b600360009054906101000a900473ffffffffffffffffffffffffffffffffffffffff1673ffffffffffffffffffffffffffffffffffffffff1663524f3889836040518263ffffffff167c01000000000000000000000000000000000000000000000000000000000281526004018080602001828103825283818151815260200191508051906020019080838360005b83811015613154578082015181840152602081019050613139565b50505050905090810190601f1680156131815780820380516001836020036101000a031916815260200191505b5092505050602060405180830381600087803b1580156131a057600080fd5b505af11580156131b4573d6000803e3d6000fd5b505050506040513d60208110156131ca57600080fd5b81019080805190602001909291905050509050919050565b606061321184848460206040519081016040528060008152506020604051908101604052806000815250613ade565b90509392505050565b6000806000600260009054906101000a900473ffffffffffffffffffffffffffffffffffffffff1673ffffffffffffffffffffffffffffffffffffffff16148061328e5750600061328c600260009054906101000a900473ffffffffffffffffffffffffffffffffffffffff166137ce565b145b1561329f5761329d60006137d9565b505b600260009054906101000a900473ffffffffffffffffffffffffffffffffffffffff1673ffffffffffffffffffffffffffffffffffffffff166338cc48316040518163ffffffff167c0100000000000000000000000000000000000000000000000000000000028152600401602060405180830381600087803b15801561332557600080fd5b505af1158015613339573d6000803e3d6000fd5b505050506040513d602081101561334f57600080fd5b810190808051906020019092919050505073ffffffffffffffffffffffffffffffffffffffff16600360009054906101000a900473ffffffffffffffffffffffffffffffffffffffff1673ffffffffffffffffffffffffffffffffffffffff161415156134b857600260009054906101000a900473ffffffffffffffffffffffffffffffffffffffff1673ffffffffffffffffffffffffffffffffffffffff166338cc48316040518163ffffffff167c0100000000000000000000000000000000000000000000000000000000028152600401602060405180830381600087803b15801561343c57600080fd5b505af1158015613450573d6000803e3d6000fd5b505050506040513d602081101561346657600080fd5b8101908080519060200190929190505050600360006101000a81548173ffffffffffffffffffffffffffffffffffffffff021916908373ffffffffffffffffffffffffffffffffffffffff1602179055505b600360009054906101000a900473ffffffffffffffffffffffffffffffffffffffff1673ffffffffffffffffffffffffffffffffffffffff16632ef3accc86856040518363ffffffff167c01000000000000000000000000000000000000000000000000000000000281526004018080602001838152602001828103825284818151815260200191508051906020019080838360005b8381101561356957808201518184015260208101905061354e565b50505050905090810190601f1680156135965780820380516001836020036101000a031916815260200191505b509350505050602060405180830381600087803b1580156135b657600080fd5b505af11580156135ca573d6000803e3d6000fd5b505050506040513d60208110156135e057600080fd5b81019080805190602001909291905050509050823a02670de0b6b3a76400000181111561361357600060010291506137c6565b600360009054906101000a900473ffffffffffffffffffffffffffffffffffffffff1673ffffffffffffffffffffffffffffffffffffffff1663c51be90f8260008888886040518663ffffffff167c0100000000000000000000000000000000000000000000000000000000028152600401808581526020018060200180602001848152602001838103835286818151815260200191508051906020019080838360005b838110156136d25780820151818401526020810190506136b7565b50505050905090810190601f1680156136ff5780820380516001836020036101000a031916815260200191505b50838103825285818151815260200191508051906020019080838360005b8381101561373857808201518184015260208101905061371d565b50505050905090810190601f1680156137655780820380516001836020036101000a031916815260200191505b5096505050505050506020604051808303818588803b15801561378757600080fd5b505af115801561379b573d6000803e3d6000fd5b50505050506040513d60208110156137b257600080fd5b810190808051906020019092919050505091505b509392505050565b6000813b9050919050565b60006137e3613ef3565b9050919050565b6000606060008060008693506000925060009150600090505b8351811015613abf5760307f010000000000000000000000000000000000000000000000000000000000000002848281518110151561383e57fe5b9060200101517f010000000000000000000000000000000000000000000000000000000000000090047f0100000000000000000000000000000000000000000000000000000000000000027effffffffffffffffffffffffffffffffffffffffffffffffffffffffffffff191610158015613956575060397f01000000000000000000000000000000000000000000000000000000000000000284828151811015156138e657fe5b9060200101517f010000000000000000000000000000000000000000000000000000000000000090047f0100000000000000000000000000000000000000000000000000000000000000027effffffffffffffffffffffffffffffffffffffffffffffffffffffffffffff191611155b15613a0757811561397957600086141561396f57613abf565b8580600190039650505b600a830292506030848281518110151561398f57fe5b9060200101517f010000000000000000000000000000000000000000000000000000000000000090047f0100000000000000000000000000000000000000000000000000000000000000027f010000000000000000000000000000000000000000000000000000000000000090040383019250613ab2565b602e7f0100000000000000000000000000000000000000000000000000000000000000028482815181101515613a3957fe5b9060200101517f010000000000000000000000000000000000000000000000000000000000000090047f0100000000000000000000000000000000000000000000000000000000000000027effffffffffffffffffffffffffffffffffffffffffffffffffffffffffffff19161415613ab157600191505b5b8080600101915050613803565b6000861115613ad15785600a0a830292505b8294505050505092915050565b6060806060806060806060806000808e98508d97508c96508b95508a94508451865188518a518c51010101016040519080825280601f01601f191660200182016040528015613b3c5781602001602082028038833980820191505090505b50935083925060009150600090505b8851811015613bfe578881815181101515613b6257fe5b9060200101517f010000000000000000000000000000000000000000000000000000000000000090047f0100000000000000000000000000000000000000000000000000000000000000028383806001019450815181101515613bc157fe5b9060200101907effffffffffffffffffffffffffffffffffffffffffffffffffffffffffffff1916908160001a9053508080600101915050613b4b565b600090505b8751811015613cb6578781815181101515613c1a57fe5b9060200101517f010000000000000000000000000000000000000000000000000000000000000090047f0100000000000000000000000000000000000000000000000000000000000000028383806001019450815181101515613c7957fe5b9060200101907effffffffffffffffffffffffffffffffffffffffffffffffffffffffffffff1916908160001a9053508080600101915050613c03565b600090505b8651811015613d6e578681815181101515613cd257fe5b9060200101517f010000000000000000000000000000000000000000000000000000000000000090047f0100000000000000000000000000000000000000000000000000000000000000028383806001019450815181101515613d3157fe5b9060200101907effffffffffffffffffffffffffffffffffffffffffffffffffffffffffffff1916908160001a9053508080600101915050613cbb565b600090505b8551811015613e26578581815181101515613d8a57fe5b9060200101517f010000000000000000000000000000000000000000000000000000000000000090047f0100000000000000000000000000000000000000000000000000000000000000028383806001019450815181101515613de957fe5b9060200101907effffffffffffffffffffffffffffffffffffffffffffffffffffffffffffff1916908160001a9053508080600101915050613d73565b600090505b8451811015613ede578481815181101515613e4257fe5b9060200101517f010000000000000000000000000000000000000000000000000000000000000090047f0100000000000000000000000000000000000000000000000000000000000000028383806001019450815181101515613ea157fe5b9060200101907effffffffffffffffffffffffffffffffffffffffffffffffffffffffffffff1916908160001a9053508080600101915050613e2b565b82995050505050505050505095945050505050565b600080613f13731d3b2638a7cc9f2cb3d298a3da7a90b67e5506ed6137ce565b1115613fb557731d3b2638a7cc9f2cb3d298a3da7a90b67e5506ed600260006101000a81548173ffffffffffffffffffffffffffffffffffffffff021916908373ffffffffffffffffffffffffffffffffffffffff160217905550613fac6040805190810160405280600b81526020017f6574685f6d61696e6e6574000000000000000000000000000000000000000000815250614389565b60019050614386565b6000613fd473c03a2615d5efaf5f49f60b7bb6583eaec212fdf16137ce565b11156140765773c03a2615d5efaf5f49f60b7bb6583eaec212fdf1600260006101000a81548173ffffffffffffffffffffffffffffffffffffffff021916908373ffffffffffffffffffffffffffffffffffffffff16021790555061406d6040805190810160405280600c81526020017f6574685f726f707374656e330000000000000000000000000000000000000000815250614389565b60019050614386565b600061409573b7a07bcf2ba2f2703b24c0691b5278999c59ac7e6137ce565b11156141375773b7a07bcf2ba2f2703b24c0691b5278999c59ac7e600260006101000a81548173ffffffffffffffffffffffffffffffffffffffff021916908373ffffffffffffffffffffffffffffffffffffffff16021790555061412e6040805190810160405280600981526020017f6574685f6b6f76616e0000000000000000000000000000000000000000000000815250614389565b60019050614386565b600061415673146500cfd35b22e4a392fe0adc06de1a1368ed486137ce565b11156141f85773146500cfd35b22e4a392fe0adc06de1a1368ed48600260006101000a81548173ffffffffffffffffffffffffffffffffffffffff021916908373ffffffffffffffffffffffffffffffffffffffff1602179055506141ef6040805190810160405280600b81526020017f6574685f72696e6b656279000000000000000000000000000000000000000000815250614389565b60019050614386565b6000614217736f485c8bf6fc43ea212e93bbf8ce046c7f1cb4756137ce565b111561427b57736f485c8bf6fc43ea212e93bbf8ce046c7f1cb475600260006101000a81548173ffffffffffffffffffffffffffffffffffffffff021916908373ffffffffffffffffffffffffffffffffffffffff16021790555060019050614386565b600061429a7320e12a1f859b3feae5fb2a0a32c18f5a65555bbf6137ce565b11156142fe577320e12a1f859b3feae5fb2a0a32c18f5a65555bbf600260006101000a81548173ffffffffffffffffffffffffffffffffffffffff021916908373ffffffffffffffffffffffffffffffffffffffff16021790555060019050614386565b600061431d7351efaf4c8b3c9afbd5ab9f4bbc82784ab6ef8faa6137ce565b1115614381577351efaf4c8b3c9afbd5ab9f4bbc82784ab6ef8faa600260006101000a81548173ffffffffffffffffffffffffffffffffffffffff021916908373ffffffffffffffffffffffffffffffffffffffff16021790555060019050614386565b600090505b90565b806004908051906020019061439f929190614559565b5050565b828054600181600116156101000203166002900490600052602060002090601f016020900481019282601f106143e457805160ff1916838001178555614412565b82800160010185558215614412579182015b828111156144115782518255916020019190600101906143f6565b5b50905061441f91906145d9565b5090565b60a060405190810160405280600073ffffffffffffffffffffffffffffffffffffffff1681526020016000151581526020016060815260200160008152602001600081525090565b60e060405190810160405280600073ffffffffffffffffffffffffffffffffffffffff168152602001600073ffffffffffffffffffffffffffffffffffffffff168152602001600015158152602001606081526020016000815260200160008152602001600081525090565b81548183558181111561450c57600301600490048160030160049004836000526020600020918201910161450b91906145d9565b5b505050565b50805460018160011615610100020316600290046000825580601f106145375750614556565b601f01602090049060005260206000209081019061455591906145d9565b5b50565b828054600181600116156101000203166002900490600052602060002090601f016020900481019282601f1061459a57805160ff19168380011785556145c8565b828001600101855582156145c8579182015b828111156145c75782518255916020019190600101906145ac565b5b5090506145d591906145d9565b5090565b6145fb91905b808211156145f75760008160009055506001016145df565b5090565b905600a165627a7a723058209637255bd90d0399b280ae6c53115898bf0beeff9f944cf5d713b2bca29b92110029",
  "source": "pragma solidity ^0.4.23;\n\nimport \"./Ownable.sol\";\nimport \"./SafeMath.sol\";\nimport \"./DaiInterface.sol\";\nimport \"./oraclizeAPI_0.5.sol\";\n\ncontract Adversary is DaiTransferrer, usingOraclize {\n\n  using SafeMath for uint256;\n\n  event NewOffer();\n  event OfferDeleted();\n  event NewEscrow();\n  event TradeCompleted();\n  event LogPriceUpdated(string price);\n  event LogNewOraclizeQuery(string description);\n\n  struct Offer {\n    address maker;\n    bool makerIsLong;\n    string currency;\n    uint dai;\n    uint listIndex;\n  }\n\n  struct PendingTake {\n    address taker;\n    uint64 offerId;\n  }\n\n  struct PendingClaim {\n    address claimer;\n    uint64 escrowId;\n  }\n\n  struct Escrow {\n    address maker;\n    address taker;\n    bool makerIsLong;\n    string currency;\n    uint dai;\n    uint listIndex;\n    uint startPriceCents;\n  }\n\n  uint public margin = 2;\n  uint public daiDecimals = 18;\n  uint public minimumDai = 10 ** daiDecimals;\n  uint public createEscrowGasLimit = 200000;  // TODO calculate in testing\n  uint public claimEscrowGasLimit = 200000;  // TODO calculate in testing\n  uint64[] public offerIds;\n  uint64[] public escrowIds;\n  uint64 public currentId = 1;\n\n  mapping (uint64 => Offer) public offers;\n  mapping (uint64 => Escrow) public escrows;\n  mapping (bytes32 => PendingTake) public pendingTakes;\n  mapping (bytes32 => PendingClaim) public pendingClaims;\n\n  function setOracleResponseGasPrice(uint priceInWei) external onlyOwner {\n    oraclize_setCustomGasPrice(priceInWei);\n  }\n\n  function createOffer(bool _long, string _currency, uint _dai) public {\n    require(_dai >= minimumDai);\n    transferDai(msg.sender, address(this), _dai);\n    offers[currentId] = Offer(msg.sender, _long, _currency, _dai, offerIds.push(currentId) - 1);\n    currentId++;\n    emit NewOffer();\n  }\n\n  function _deleteOffer(uint64 _offerId) internal {\n    uint listIndex = offers[_offerId].listIndex;\n    offerIds[listIndex] = offerIds[offerIds.length - 1];\n    offerIds.length --;\n    delete offers[_offerId];\n    offers[offerIds[listIndex]].listIndex = listIndex;\n    emit OfferDeleted();\n  }\n\n  function deleteOffer(uint64 _offerId) external {\n    require(msg.sender == offers[_offerId].maker);\n    transferDai(address(this), msg.sender, offers[_offerId].dai);\n    _deleteOffer(_offerId);\n  }\n\n  function createEscrow(uint64 _offerId) public {\n    if (oraclize_getPrice(\"URL\") > this.balance) {\n        LogNewOraclizeQuery(\"Oraclize query was NOT sent, please add some ETH to cover for the query fee\");\n    } else {\n        LogNewOraclizeQuery(\"Oraclize query was sent, standing by for the answer..\");\n        bytes32 queryId = oraclize_query(\"URL\", strConcat(\"json(https://www.bitstamp.net/api/v2/ticker/\",\n                                         offers[_offerId].currency, \"ethusd/).last\"), createEscrowGasLimit);\n        pendingTakes[queryId] = PendingTake(msg.sender, _offerId);\n    }\n  }\n\n  function claimEscrow(uint64 _offerId) public {\n    if (oraclize_getPrice(\"URL\") > this.balance) {\n        LogNewOraclizeQuery(\"Oraclize query was NOT sent, please add some ETH to cover for the query fee\");\n    } else {\n        LogNewOraclizeQuery(\"Oraclize query was sent, standing by for the answer..\");\n        bytes32 queryId = oraclize_query(\"URL\", strConcat(\"json(https://www.bitstamp.net/api/v2/ticker/\",\n                                         offers[_offerId].currency, \"ethusd/).last\"), createEscrowGasLimit);\n        pendingClaims[queryId] = PendingClaim(msg.sender, _offerId);\n    }\n  }\n\n  function __callback(bytes32 myid, string result) public {\n    require(msg.sender == oraclize_cbAddress());\n    if(pendingTakes[myid].offerId != 0) {\n      completeEscrowCreation(pendingTakes[myid], result);\n    }\n    else {\n      if(pendingClaims[myid].escrowId != 0) {\n        completeEscrowClaim(pendingClaims[myid], result);\n      }\n    }\n    revert();\n  }\n\n  function completeEscrowCreation(PendingTake _take, string priceResult) internal {  // TODO is result a string?\n    Offer memory offer = offers[_take.offerId];\n    require(offer.dai > 0);\n    transferDai(_take.taker, address(this), offer.dai);\n    escrows[currentId] = Escrow(offer.maker, _take.taker, offer.makerIsLong, offer.currency, offer.dai * 99 / 50,\n                                escrowIds.push(currentId) - 1, parseInt(priceResult, 100));  // todo str to int\n    currentId++;\n    _deleteOffer(_take.offerId);\n    emit NewEscrow();\n  }\n\n  function completeEscrowClaim(PendingClaim _pendingClaim, string priceResult) internal {\n    Escrow memory escrow = escrows[_pendingClaim.escrowId];\n    require(_pendingClaim.claimer == escrow.maker || _pendingClaim.claimer == escrow.taker);\n    uint finalPriceCents = parseInt(priceResult, 100);  // TODO what happens with decimal\n    uint payoutForLong = (escrow.dai * ((finalPriceCents - escrow.startPriceCents) * margin + escrow.startPriceCents)) /\n                         (2 * escrow.startPriceCents);\n    uint payoutForShort = escrow.dai - payoutForLong;\n    if(escrow.makerIsLong) {\n      transferDai(address(this), escrow.maker, payoutForLong);\n      transferDai(address(this), escrow.taker, payoutForShort);\n    }\n    else {\n      transferDai(address(this), escrow.maker, payoutForShort);\n      transferDai(address(this), escrow.taker, payoutForLong);\n    }\n    /* TODO delete escrow item in map and array and make sure same for offers. */\n    emit TradeCompleted();\n  }\n}\n",
  "sourcePath": "/home/mark/adversary/contracts/Adversary.sol",
  "compiler": {
    "name": "solc",
    "version": "0.4.23+commit.124ca40d.Emscripten.clang"
  },
  "schemaVersion": "2.0.0",
  "updatedAt": "2018-04-26T04:19:33.510Z"
}