{
  "contractName": "Adversary",
  "abi": [
    {
      "constant": true,
      "inputs": [
        {
          "name": "",
          "type": "uint256"
        }
      ],
      "name": "offerIds",
      "outputs": [
        {
          "name": "",
          "type": "uint64"
        }
      ],
      "payable": false,
      "stateMutability": "view",
      "type": "function"
    },
    {
      "constant": true,
      "inputs": [
        {
          "name": "",
          "type": "uint64"
        }
      ],
      "name": "offers",
      "outputs": [
        {
          "name": "maker",
          "type": "address"
        },
        {
          "name": "makerIsLong",
          "type": "bool"
        },
        {
          "name": "currency",
          "type": "string"
        },
        {
          "name": "dai",
          "type": "uint256"
        },
        {
          "name": "listIndex",
          "type": "uint256"
        }
      ],
      "payable": false,
      "stateMutability": "view",
      "type": "function"
    },
    {
      "constant": true,
      "inputs": [
        {
          "name": "",
          "type": "uint64"
        }
      ],
      "name": "escrows",
      "outputs": [
        {
          "name": "maker",
          "type": "address"
        },
        {
          "name": "taker",
          "type": "address"
        },
        {
          "name": "makerIsLong",
          "type": "bool"
        },
        {
          "name": "currency",
          "type": "string"
        },
        {
          "name": "dai",
          "type": "uint256"
        },
        {
          "name": "listIndex",
          "type": "uint256"
        },
        {
          "name": "startPriceCents",
          "type": "uint256"
        }
      ],
      "payable": false,
      "stateMutability": "view",
      "type": "function"
    },
    {
      "constant": true,
      "inputs": [
        {
          "name": "",
          "type": "uint256"
        }
      ],
      "name": "escrowIds",
      "outputs": [
        {
          "name": "",
          "type": "uint64"
        }
      ],
      "payable": false,
      "stateMutability": "view",
      "type": "function"
    },
    {
      "constant": true,
      "inputs": [],
      "name": "owner",
      "outputs": [
        {
          "name": "",
          "type": "address"
        }
      ],
      "payable": false,
      "stateMutability": "view",
      "type": "function"
    },
    {
      "constant": true,
      "inputs": [],
      "name": "minimumDai",
      "outputs": [
        {
          "name": "",
          "type": "uint64"
        }
      ],
      "payable": false,
      "stateMutability": "view",
      "type": "function"
    },
    {
      "constant": true,
      "inputs": [],
      "name": "currentId",
      "outputs": [
        {
          "name": "",
          "type": "uint64"
        }
      ],
      "payable": false,
      "stateMutability": "view",
      "type": "function"
    },
    {
      "constant": false,
      "inputs": [
        {
          "name": "newOwner",
          "type": "address"
        }
      ],
      "name": "transferOwnership",
      "outputs": [],
      "payable": false,
      "stateMutability": "nonpayable",
      "type": "function"
    },
    {
      "anonymous": false,
      "inputs": [],
      "name": "NewOffer",
      "type": "event"
    },
    {
      "anonymous": false,
      "inputs": [],
      "name": "OfferDeleted",
      "type": "event"
    },
    {
      "anonymous": false,
      "inputs": [],
      "name": "NewEscrow",
      "type": "event"
    },
    {
      "anonymous": false,
      "inputs": [],
      "name": "TradeCompleted",
      "type": "event"
    },
    {
      "anonymous": false,
      "inputs": [
        {
          "indexed": true,
          "name": "previousOwner",
          "type": "address"
        },
        {
          "indexed": true,
          "name": "newOwner",
          "type": "address"
        }
      ],
      "name": "OwnershipTransferred",
      "type": "event"
    },
    {
      "constant": false,
      "inputs": [
        {
          "name": "_long",
          "type": "bool"
        },
        {
          "name": "_currency",
          "type": "string"
        },
        {
          "name": "_dai",
          "type": "uint256"
        }
      ],
      "name": "createOffer",
      "outputs": [],
      "payable": false,
      "stateMutability": "nonpayable",
      "type": "function"
    },
    {
      "constant": false,
      "inputs": [
        {
          "name": "_offerId",
          "type": "uint64"
        }
      ],
      "name": "deleteOffer",
      "outputs": [],
      "payable": false,
      "stateMutability": "nonpayable",
      "type": "function"
    },
    {
      "constant": false,
      "inputs": [
        {
          "name": "_offerId",
          "type": "uint64"
        }
      ],
      "name": "createEscrow",
      "outputs": [],
      "payable": false,
      "stateMutability": "nonpayable",
      "type": "function"
    },
    {
      "constant": false,
      "inputs": [
        {
          "name": "_escrowId",
          "type": "uint64"
        }
      ],
      "name": "claimEscrow",
      "outputs": [],
      "payable": false,
      "stateMutability": "nonpayable",
      "type": "function"
    }
  ],
  "bytecode": "0x6080604052600280556001600560006101000a81548167ffffffffffffffff021916908367ffffffffffffffff160217905550600a600560086101000a81548167ffffffffffffffff021916908367ffffffffffffffff160217905550336000806101000a81548173ffffffffffffffffffffffffffffffffffffffff021916908373ffffffffffffffffffffffffffffffffffffffff160217905550611805806100ab6000396000f3006080604052600436106100ba576000357c0100000000000000000000000000000000000000000000000000000000900463ffffffff168063110b9d89146100bf5780632ebb620c1461011457806336c1cdd914610210578063412bca831461028f578063501cb96f146102c6578063786f1295146103fc5780637ea3721b146104515780638da5cb5b146104885780638e36a277146104df578063a2b7b1c514610516578063e00dd16114610555578063f2fde38b14610594575b600080fd5b3480156100cb57600080fd5b506100ea600480360381019080803590602001909291905050506105d7565b604051808267ffffffffffffffff1667ffffffffffffffff16815260200191505060405180910390f35b34801561012057600080fd5b50610149600480360381019080803567ffffffffffffffff169060200190929190505050610614565b604051808673ffffffffffffffffffffffffffffffffffffffff1673ffffffffffffffffffffffffffffffffffffffff1681526020018515151515815260200180602001848152602001838152602001828103825285818151815260200191508051906020019080838360005b838110156101d15780820151818401526020810190506101b6565b50505050905090810190601f1680156101fe5780820380516001836020036101000a031916815260200191505b50965050505050505060405180910390f35b34801561021c57600080fd5b5061028d600480360381019080803515159060200190929190803590602001908201803590602001908080601f01602080910402602001604051908101604052809392919081815260200183838082843782019150505050505091929192908035906020019092919050505061070f565b005b34801561029b57600080fd5b506102c4600480360381019080803567ffffffffffffffff16906020019092919050505061093e565b005b3480156102d257600080fd5b506102fb600480360381019080803567ffffffffffffffff1690602001909291905050506109ce565b604051808873ffffffffffffffffffffffffffffffffffffffff1673ffffffffffffffffffffffffffffffffffffffff1681526020018773ffffffffffffffffffffffffffffffffffffffff1673ffffffffffffffffffffffffffffffffffffffff1681526020018615151515815260200180602001858152602001848152602001838152602001828103825286818151815260200191508051906020019080838360005b838110156103bb5780820151818401526020810190506103a0565b50505050905090810190601f1680156103e85780820380516001836020036101000a031916815260200191505b509850505050505050505060405180910390f35b34801561040857600080fd5b5061042760048036038101908080359060200190929190505050610af5565b604051808267ffffffffffffffff1667ffffffffffffffff16815260200191505060405180910390f35b34801561045d57600080fd5b50610486600480360381019080803567ffffffffffffffff169060200190929190505050610b32565b005b34801561049457600080fd5b5061049d610e27565b604051808273ffffffffffffffffffffffffffffffffffffffff1673ffffffffffffffffffffffffffffffffffffffff16815260200191505060405180910390f35b3480156104eb57600080fd5b50610514600480360381019080803567ffffffffffffffff169060200190929190505050610e4c565b005b34801561052257600080fd5b5061052b611285565b604051808267ffffffffffffffff1667ffffffffffffffff16815260200191505060405180910390f35b34801561056157600080fd5b5061056a61129f565b604051808267ffffffffffffffff1667ffffffffffffffff16815260200191505060405180910390f35b3480156105a057600080fd5b506105d5600480360381019080803573ffffffffffffffffffffffffffffffffffffffff1690602001909291905050506112b9565b005b6003818154811015156105e657fe5b9060005260206000209060049182820401919006600802915054906101000a900467ffffffffffffffff1681565b60066020528060005260406000206000915090508060000160009054906101000a900473ffffffffffffffffffffffffffffffffffffffff16908060000160149054906101000a900460ff1690806001018054600181600116156101000203166002900480601f0160208091040260200160405190810160405280929190818152602001828054600181600116156101000203166002900480156106f95780601f106106ce576101008083540402835291602001916106f9565b820191906000526020600020905b8154815290600101906020018083116106dc57829003601f168201915b5050505050908060020154908060030154905085565b600560089054906101000a900467ffffffffffffffff1667ffffffffffffffff16811015151561073e57600080fd5b60a0604051908101604052803373ffffffffffffffffffffffffffffffffffffffff168152602001841515815260200183815260200182815260200160016003600560009054906101000a900467ffffffffffffffff16908060018154018082558091505090600182039060005260206000209060049182820401919006600802909192909190916101000a81548167ffffffffffffffff021916908367ffffffffffffffff1602179055500381525060066000600560009054906101000a900467ffffffffffffffff1667ffffffffffffffff1667ffffffffffffffff16815260200190815260200160002060008201518160000160006101000a81548173ffffffffffffffffffffffffffffffffffffffff021916908373ffffffffffffffffffffffffffffffffffffffff16021790555060208201518160000160146101000a81548160ff02191690831515021790555060408201518160010190805190602001906108ae9291906115fe565b5060608201518160020155608082015181600301559050506005600081819054906101000a900467ffffffffffffffff168092919060010191906101000a81548167ffffffffffffffff021916908367ffffffffffffffff160217905550507fa00340ea2c49630c646933ad372a70f3ec1d77afaccb71c6fc8ace1c1635723a60405160405180910390a1505050565b600660008267ffffffffffffffff1667ffffffffffffffff16815260200190815260200160002060000160009054906101000a900473ffffffffffffffffffffffffffffffffffffffff1673ffffffffffffffffffffffffffffffffffffffff163373ffffffffffffffffffffffffffffffffffffffff161415156109c257600080fd5b6109cb8161140e565b50565b60076020528060005260406000206000915090508060000160009054906101000a900473ffffffffffffffffffffffffffffffffffffffff16908060010160009054906101000a900473ffffffffffffffffffffffffffffffffffffffff16908060010160149054906101000a900460ff1690806002018054600181600116156101000203166002900480601f016020809104026020016040519081016040528092919081815260200182805460018160011615610100020316600290048015610ad95780601f10610aae57610100808354040283529160200191610ad9565b820191906000526020600020905b815481529060010190602001808311610abc57829003601f168201915b5050505050908060030154908060040154908060050154905087565b600481815481101515610b0457fe5b9060005260206000209060049182820401919006600802915054906101000a900467ffffffffffffffff1681565b610b3a61167e565b6000806000600760008667ffffffffffffffff1667ffffffffffffffff16815260200190815260200160002060e060405190810160405290816000820160009054906101000a900473ffffffffffffffffffffffffffffffffffffffff1673ffffffffffffffffffffffffffffffffffffffff1673ffffffffffffffffffffffffffffffffffffffff1681526020016001820160009054906101000a900473ffffffffffffffffffffffffffffffffffffffff1673ffffffffffffffffffffffffffffffffffffffff1673ffffffffffffffffffffffffffffffffffffffff1681526020016001820160149054906101000a900460ff16151515158152602001600282018054600181600116156101000203166002900480601f016020809104026020016040519081016040528092919081815260200182805460018160011615610100020316600290048015610cd25780601f10610ca757610100808354040283529160200191610cd2565b820191906000526020600020905b815481529060010190602001808311610cb557829003601f168201915b5050505050815260200160038201548152602001600482015481526020016005820154815250509350836000015173ffffffffffffffffffffffffffffffffffffffff163373ffffffffffffffffffffffffffffffffffffffff161480610d685750836020015173ffffffffffffffffffffffffffffffffffffffff163373ffffffffffffffffffffffffffffffffffffffff16145b1515610d7357600080fd5b6130d492508360c001516002028460c001516002548660c0015186030201856080015102811515610da057fe5b049150818460800151039050836040015115610dd757610dc48460000151836115fa565b610dd28460200151826115fa565b610df4565b610de58460200151836115fa565b610df38460000151826115fa565b5b7f15c9cc77e4f5c4d922d392856a540ac1aede4d79990e73c321ae1ce4309c76e260405160405180910390a15050505050565b6000809054906101000a900473ffffffffffffffffffffffffffffffffffffffff1681565b610e546116ea565b6000600660008467ffffffffffffffff1667ffffffffffffffff16815260200190815260200160002060a060405190810160405290816000820160009054906101000a900473ffffffffffffffffffffffffffffffffffffffff1673ffffffffffffffffffffffffffffffffffffffff1673ffffffffffffffffffffffffffffffffffffffff1681526020016000820160149054906101000a900460ff16151515158152602001600182018054600181600116156101000203166002900480601f016020809104026020016040519081016040528092919081815260200182805460018160011615610100020316600290048015610f935780601f10610f6857610100808354040283529160200191610f93565b820191906000526020600020905b815481529060010190602001808311610f7657829003601f168201915b50505050508152602001600282015481526020016003820154815250509150600560089054906101000a900467ffffffffffffffff1667ffffffffffffffff16826060015110151515610fe557600080fd5b612710905060e060405190810160405280836000015173ffffffffffffffffffffffffffffffffffffffff1681526020013373ffffffffffffffffffffffffffffffffffffffff16815260200183602001511515815260200183604001518152602001606460c785606001510281151561105b57fe5b04815260200160016004600560009054906101000a900467ffffffffffffffff16908060018154018082558091505090600182039060005260206000209060049182820401919006600802909192909190916101000a81548167ffffffffffffffff021916908367ffffffffffffffff1602179055500381526020018281525060076000600560009054906101000a900467ffffffffffffffff1667ffffffffffffffff1667ffffffffffffffff16815260200190815260200160002060008201518160000160006101000a81548173ffffffffffffffffffffffffffffffffffffffff021916908373ffffffffffffffffffffffffffffffffffffffff16021790555060208201518160010160006101000a81548173ffffffffffffffffffffffffffffffffffffffff021916908373ffffffffffffffffffffffffffffffffffffffff16021790555060408201518160010160146101000a81548160ff02191690831515021790555060608201518160020190805190602001906111e29291906115fe565b506080820151816003015560a0820151816004015560c082015181600501559050506005600081819054906101000a900467ffffffffffffffff168092919060010191906101000a81548167ffffffffffffffff021916908367ffffffffffffffff160217905550506112548361140e565b7fbeaf66fc056ca47252dc3b4d3dfdc7d09e7e956b51402a9a08ae0096a4ce28b960405160405180910390a1505050565b600560089054906101000a900467ffffffffffffffff1681565b600560009054906101000a900467ffffffffffffffff1681565b6000809054906101000a900473ffffffffffffffffffffffffffffffffffffffff1673ffffffffffffffffffffffffffffffffffffffff163373ffffffffffffffffffffffffffffffffffffffff1614151561131457600080fd5b600073ffffffffffffffffffffffffffffffffffffffff168173ffffffffffffffffffffffffffffffffffffffff161415151561135057600080fd5b8073ffffffffffffffffffffffffffffffffffffffff166000809054906101000a900473ffffffffffffffffffffffffffffffffffffffff1673ffffffffffffffffffffffffffffffffffffffff167f8be0079c531659141344cd1fd0a4f28419497f9722a3daafe3b4186f6b6457e060405160405180910390a3806000806101000a81548173ffffffffffffffffffffffffffffffffffffffff021916908373ffffffffffffffffffffffffffffffffffffffff16021790555050565b6000600660008367ffffffffffffffff1667ffffffffffffffff168152602001908152602001600020600301549050600360016003805490500381548110151561145457fe5b90600052602060002090600491828204019190066008029054906101000a900467ffffffffffffffff1660038281548110151561148d57fe5b90600052602060002090600491828204019190066008026101000a81548167ffffffffffffffff021916908367ffffffffffffffff16021790555060038054809190600190036114dd9190611732565b50600660008367ffffffffffffffff1667ffffffffffffffff168152602001908152602001600020600080820160006101000a81549073ffffffffffffffffffffffffffffffffffffffff02191690556000820160146101000a81549060ff0219169055600182016000611551919061176c565b600282016000905560038201600090555050806006600060038481548110151561157757fe5b90600052602060002090600491828204019190066008029054906101000a900467ffffffffffffffff1667ffffffffffffffff1667ffffffffffffffff168152602001908152602001600020600301819055507f43e051903ae6ef503eb9da05359c07dd9c918fdb1eeb619b712bb0d0982787b660405160405180910390a15050565b5050565b828054600181600116156101000203166002900490600052602060002090601f016020900481019282601f1061163f57805160ff191683800117855561166d565b8280016001018555821561166d579182015b8281111561166c578251825591602001919060010190611651565b5b50905061167a91906117b4565b5090565b60e060405190810160405280600073ffffffffffffffffffffffffffffffffffffffff168152602001600073ffffffffffffffffffffffffffffffffffffffff168152602001600015158152602001606081526020016000815260200160008152602001600081525090565b60a060405190810160405280600073ffffffffffffffffffffffffffffffffffffffff1681526020016000151581526020016060815260200160008152602001600081525090565b81548183558181111561176757600301600490048160030160049004836000526020600020918201910161176691906117b4565b5b505050565b50805460018160011615610100020316600290046000825580601f1061179257506117b1565b601f0160209004906000526020600020908101906117b091906117b4565b5b50565b6117d691905b808211156117d25760008160009055506001016117ba565b5090565b905600a165627a7a723058207fa0c9199ac692fce45e67ad907d079699d29daececee70bf0c0c82aacfd4cc00029",
  "source": "pragma solidity ^0.4.23;\n\nimport \"./Ownable.sol\";\nimport \"./SafeMath.sol\";\nimport \"./DaiInterface.sol\";\n\ncontract Adversary is DaiInterface {\n\n  using SafeMath for uint256;\n\n  event NewOffer();\n  event OfferDeleted();\n  event NewEscrow();\n  event TradeCompleted();\n\n  struct Offer {\n    address maker;\n    bool makerIsLong;\n    string currency;\n    uint dai;\n    uint listIndex;\n  }\n\n  struct Escrow {\n    address maker;\n    address taker;\n    bool makerIsLong;\n    string currency;\n    uint dai;\n    uint listIndex;\n    uint startPriceCents;\n  }\n\n  uint margin = 2;\n  uint64[] public offerIds;\n  uint64[] public escrowIds;\n  uint64 public currentId = 1;\n  uint64 public minimumDai = 10;  // todo what are dai units? 10^18 == 1?\n\n  mapping (uint64 => Offer) public offers;\n  mapping (uint64 => Escrow) public escrows;\n\n\n  function createOffer(bool _long, string _currency, uint _dai) public {\n    require(_dai >= minimumDai);\n    // todo dai.transferFrom(msg.sender, self, _dai);\n    offers[currentId] = Offer(msg.sender, _long, _currency, _dai, offerIds.push(currentId) - 1);\n    currentId++;\n    emit NewOffer();\n  }\n\n  function _deleteOffer(uint64 _offerId) internal {\n    uint listIndex = offers[_offerId].listIndex;\n    offerIds[listIndex] = offerIds[offerIds.length - 1];\n    offerIds.length --;\n    delete offers[_offerId];\n    offers[offerIds[listIndex]].listIndex = listIndex;\n    emit OfferDeleted();\n  }\n\n  function deleteOffer(uint64 _offerId) external {\n    require(msg.sender == offers[_offerId].maker);\n    _deleteOffer(_offerId);\n    // todo return dai to user\n  }\n\n  function createEscrow(uint64 _offerId) public {\n    Offer memory offer = offers[_offerId];\n    require(offer.dai >= minimumDai);\n    // todo dai.transferFrom(msg.sender, self, offer.dai);\n    uint startPriceCents = 10000;\n    escrows[currentId] = Escrow(offer.maker, msg.sender, offer.makerIsLong, offer.currency, offer.dai * 199 / 100,\n                                escrowIds.push(currentId) - 1, startPriceCents);\n    currentId++;\n    _deleteOffer(_offerId);\n    emit NewEscrow();\n  }\n\n  function claimEscrow(uint64 _escrowId) public {\n    Escrow memory escrow = escrows[_escrowId];\n    require(msg.sender == escrow.maker || msg.sender == escrow.taker);\n    uint finalPriceCents = 12500;\n    uint payoutForLong = (escrow.dai * ((finalPriceCents - escrow.startPriceCents) * margin + escrow.startPriceCents)) /\n                         (2 * escrow.startPriceCents);\n    uint payoutForShort = escrow.dai - payoutForLong;\n    if(escrow.makerIsLong) {\n      payDai(escrow.maker, payoutForLong);\n      payDai(escrow.taker, payoutForShort);\n    }\n    else {\n      payDai(escrow.taker, payoutForLong);\n      payDai(escrow.maker, payoutForShort);\n    }\n    emit TradeCompleted();\n  }\n}\n",
  "sourcePath": "/home/mark/adversary/contracts/Adversary.sol",
  "compiler": {
    "name": "solc",
    "version": "0.4.23+commit.124ca40d.Emscripten.clang"
  },
  "schemaVersion": "2.0.0",
  "updatedAt": "2018-04-23T09:37:55.187Z"
}