{
  "contractName": "Adversary",
  "abi": [
    {
      "constant": true,
      "inputs": [
        {
          "name": "",
          "type": "uint256"
        }
      ],
      "name": "offerIds",
      "outputs": [
        {
          "name": "",
          "type": "uint64"
        }
      ],
      "payable": false,
      "stateMutability": "view",
      "type": "function"
    },
    {
      "constant": true,
      "inputs": [
        {
          "name": "",
          "type": "uint64"
        }
      ],
      "name": "offers",
      "outputs": [
        {
          "name": "maker",
          "type": "address"
        },
        {
          "name": "currency",
          "type": "string"
        },
        {
          "name": "dai",
          "type": "uint256"
        },
        {
          "name": "listIndex",
          "type": "uint256"
        }
      ],
      "payable": false,
      "stateMutability": "view",
      "type": "function"
    },
    {
      "constant": true,
      "inputs": [
        {
          "name": "",
          "type": "uint64"
        }
      ],
      "name": "escrows",
      "outputs": [
        {
          "name": "maker",
          "type": "address"
        },
        {
          "name": "taker",
          "type": "address"
        },
        {
          "name": "dai",
          "type": "uint256"
        },
        {
          "name": "earliestTermination",
          "type": "uint256"
        },
        {
          "name": "id",
          "type": "uint256"
        },
        {
          "name": "startPriceCents",
          "type": "uint32"
        },
        {
          "name": "milliMarginRatio",
          "type": "uint32"
        },
        {
          "name": "kiloMinimumPriceDeltaRatio",
          "type": "uint32"
        }
      ],
      "payable": false,
      "stateMutability": "view",
      "type": "function"
    },
    {
      "constant": true,
      "inputs": [
        {
          "name": "",
          "type": "uint256"
        }
      ],
      "name": "escrowIds",
      "outputs": [
        {
          "name": "",
          "type": "uint64"
        }
      ],
      "payable": false,
      "stateMutability": "view",
      "type": "function"
    },
    {
      "constant": true,
      "inputs": [],
      "name": "owner",
      "outputs": [
        {
          "name": "",
          "type": "address"
        }
      ],
      "payable": false,
      "stateMutability": "view",
      "type": "function"
    },
    {
      "constant": true,
      "inputs": [],
      "name": "currentId",
      "outputs": [
        {
          "name": "",
          "type": "uint64"
        }
      ],
      "payable": false,
      "stateMutability": "view",
      "type": "function"
    },
    {
      "constant": false,
      "inputs": [
        {
          "name": "newOwner",
          "type": "address"
        }
      ],
      "name": "transferOwnership",
      "outputs": [],
      "payable": false,
      "stateMutability": "nonpayable",
      "type": "function"
    },
    {
      "anonymous": false,
      "inputs": [],
      "name": "NewOffer",
      "type": "event"
    },
    {
      "anonymous": false,
      "inputs": [],
      "name": "RemovedOffer",
      "type": "event"
    },
    {
      "anonymous": false,
      "inputs": [],
      "name": "ClaimedOffer",
      "type": "event"
    },
    {
      "anonymous": false,
      "inputs": [],
      "name": "FinalisedOffer",
      "type": "event"
    },
    {
      "anonymous": false,
      "inputs": [
        {
          "indexed": true,
          "name": "previousOwner",
          "type": "address"
        },
        {
          "indexed": true,
          "name": "newOwner",
          "type": "address"
        }
      ],
      "name": "OwnershipTransferred",
      "type": "event"
    },
    {
      "constant": false,
      "inputs": [
        {
          "name": "_currency",
          "type": "string"
        },
        {
          "name": "_dai",
          "type": "uint256"
        }
      ],
      "name": "createOffer",
      "outputs": [],
      "payable": false,
      "stateMutability": "nonpayable",
      "type": "function"
    },
    {
      "constant": false,
      "inputs": [
        {
          "name": "_offerId",
          "type": "uint64"
        }
      ],
      "name": "deleteOffer",
      "outputs": [],
      "payable": false,
      "stateMutability": "nonpayable",
      "type": "function"
    }
  ],
  "bytecode": "0x60806040526000600460006101000a81548167ffffffffffffffff021916908367ffffffffffffffff160217905550336000806101000a81548173ffffffffffffffffffffffffffffffffffffffff021916908373ffffffffffffffffffffffffffffffffffffffff160217905550610dad8061007d6000396000f300608060405260043610610099576000357c0100000000000000000000000000000000000000000000000000000000900463ffffffff168063110b9d891461009e5780632ebb620c146100f3578063412bca83146101e4578063501cb96f1461021b578063786f1295146103135780637e0b455b146103685780638da5cb5b146103db578063e00dd16114610432578063f2fde38b14610471575b600080fd5b3480156100aa57600080fd5b506100c9600480360381019080803590602001909291905050506104b4565b604051808267ffffffffffffffff1667ffffffffffffffff16815260200191505060405180910390f35b3480156100ff57600080fd5b50610128600480360381019080803567ffffffffffffffff1690602001909291905050506104f1565b604051808573ffffffffffffffffffffffffffffffffffffffff1673ffffffffffffffffffffffffffffffffffffffff16815260200180602001848152602001838152602001828103825285818151815260200191508051906020019080838360005b838110156101a657808201518184015260208101905061018b565b50505050905090810190601f1680156101d35780820380516001836020036101000a031916815260200191505b509550505050505060405180910390f35b3480156101f057600080fd5b50610219600480360381019080803567ffffffffffffffff1690602001909291905050506105d9565b005b34801561022757600080fd5b50610250600480360381019080803567ffffffffffffffff169060200190929190505050610695565b604051808973ffffffffffffffffffffffffffffffffffffffff1673ffffffffffffffffffffffffffffffffffffffff1681526020018873ffffffffffffffffffffffffffffffffffffffff1673ffffffffffffffffffffffffffffffffffffffff1681526020018781526020018681526020018581526020018463ffffffff1663ffffffff1681526020018363ffffffff1663ffffffff1681526020018263ffffffff1663ffffffff1681526020019850505050505050505060405180910390f35b34801561031f57600080fd5b5061033e6004803603810190808035906020019092919050505061074d565b604051808267ffffffffffffffff1667ffffffffffffffff16815260200191505060405180910390f35b34801561037457600080fd5b506103d9600480360381019080803590602001908201803590602001908080601f01602080910402602001604051908101604052809392919081815260200183838082843782019150505050505091929192908035906020019092919050505061078a565b005b3480156103e757600080fd5b506103f061091a565b604051808273ffffffffffffffffffffffffffffffffffffffff1673ffffffffffffffffffffffffffffffffffffffff16815260200191505060405180910390f35b34801561043e57600080fd5b5061044761093f565b604051808267ffffffffffffffff1667ffffffffffffffff16815260200191505060405180910390f35b34801561047d57600080fd5b506104b2600480360381019080803573ffffffffffffffffffffffffffffffffffffffff169060200190929190505050610959565b005b6002818154811015156104c357fe5b9060005260206000209060049182820401919006600802915054906101000a900467ffffffffffffffff1681565b60056020528060005260406000206000915090508060000160009054906101000a900473ffffffffffffffffffffffffffffffffffffffff1690806001018054600181600116156101000203166002900480601f0160208091040260200160405190810160405280929190818152602001828054600181600116156101000203166002900480156105c35780601f10610598576101008083540402835291602001916105c3565b820191906000526020600020905b8154815290600101906020018083116105a657829003601f168201915b5050505050908060020154908060030154905084565b600560008267ffffffffffffffff1667ffffffffffffffff16815260200190815260200160002060000160009054906101000a900473ffffffffffffffffffffffffffffffffffffffff1673ffffffffffffffffffffffffffffffffffffffff163373ffffffffffffffffffffffffffffffffffffffff1614151561065d57600080fd5b61066681610aae565b7f7711bcf5c2a990c3d6319ede111d76724d096d38649ca2650063db51d073333d60405160405180910390a150565b60066020528060005260406000206000915090508060000160009054906101000a900473ffffffffffffffffffffffffffffffffffffffff16908060010160009054906101000a900473ffffffffffffffffffffffffffffffffffffffff16908060020154908060030154908060040154908060050160009054906101000a900463ffffffff16908060050160049054906101000a900463ffffffff16908060050160089054906101000a900463ffffffff16905088565b60038181548110151561075c57fe5b9060005260206000209060049182820401919006600802915054906101000a900467ffffffffffffffff1681565b6080604051908101604052803373ffffffffffffffffffffffffffffffffffffffff16815260200183815260200182815260200160016002600460009054906101000a900467ffffffffffffffff16908060018154018082558091505090600182039060005260206000209060049182820401919006600802909192909190916101000a81548167ffffffffffffffff021916908367ffffffffffffffff1602179055500381525060056000600460009054906101000a900467ffffffffffffffff1667ffffffffffffffff1667ffffffffffffffff16815260200190815260200160002060008201518160000160006101000a81548173ffffffffffffffffffffffffffffffffffffffff021916908373ffffffffffffffffffffffffffffffffffffffff16021790555060208201518160010190805190602001906108d2929190610c5a565b5060408201518160020155606082015181600301559050507fa00340ea2c49630c646933ad372a70f3ec1d77afaccb71c6fc8ace1c1635723a60405160405180910390a15050565b6000809054906101000a900473ffffffffffffffffffffffffffffffffffffffff1681565b600460009054906101000a900467ffffffffffffffff1681565b6000809054906101000a900473ffffffffffffffffffffffffffffffffffffffff1673ffffffffffffffffffffffffffffffffffffffff163373ffffffffffffffffffffffffffffffffffffffff161415156109b457600080fd5b600073ffffffffffffffffffffffffffffffffffffffff168173ffffffffffffffffffffffffffffffffffffffff16141515156109f057600080fd5b8073ffffffffffffffffffffffffffffffffffffffff166000809054906101000a900473ffffffffffffffffffffffffffffffffffffffff1673ffffffffffffffffffffffffffffffffffffffff167f8be0079c531659141344cd1fd0a4f28419497f9722a3daafe3b4186f6b6457e060405160405180910390a3806000806101000a81548173ffffffffffffffffffffffffffffffffffffffff021916908373ffffffffffffffffffffffffffffffffffffffff16021790555050565b6000600560008367ffffffffffffffff1667ffffffffffffffff1681526020019081526020016000206003015490506002600160028054905003815481101515610af457fe5b90600052602060002090600491828204019190066008029054906101000a900467ffffffffffffffff16600282815481101515610b2d57fe5b90600052602060002090600491828204019190066008026101000a81548167ffffffffffffffff021916908367ffffffffffffffff1602179055506002805480919060019003610b7d9190610cda565b50600560008367ffffffffffffffff1667ffffffffffffffff168152602001908152602001600020600080820160006101000a81549073ffffffffffffffffffffffffffffffffffffffff0219169055600182016000610bdd9190610d14565b6002820160009055600382016000905550508060056000600284815481101515610c0357fe5b90600052602060002090600491828204019190066008029054906101000a900467ffffffffffffffff1667ffffffffffffffff1667ffffffffffffffff168152602001908152602001600020600301819055505050565b828054600181600116156101000203166002900490600052602060002090601f016020900481019282601f10610c9b57805160ff1916838001178555610cc9565b82800160010185558215610cc9579182015b82811115610cc8578251825591602001919060010190610cad565b5b509050610cd69190610d5c565b5090565b815481835581811115610d0f576003016004900481600301600490048360005260206000209182019101610d0e9190610d5c565b5b505050565b50805460018160011615610100020316600290046000825580601f10610d3a5750610d59565b601f016020900490600052602060002090810190610d589190610d5c565b5b50565b610d7e91905b80821115610d7a576000816000905550600101610d62565b5090565b905600a165627a7a723058204620e723a2fbfba01f984c97202ada5ecbc581f039c9357718bb229b49a6132f0029",
  "source": "pragma solidity ^0.4.23;\n\nimport \"./Ownable.sol\";\nimport \"./SafeMath.sol\";\nimport \"./DaiInterface.sol\";\n\ncontract Adversary is DaiInterface {\n\n  using SafeMath for uint256;\n\n  event NewOffer();\n  event RemovedOffer();\n  event ClaimedOffer();\n  event FinalisedOffer();\n\n  struct Offer {\n    address maker;\n    string currency;\n    uint dai;\n    uint listIndex;\n  }\n\n  struct Escrow {\n    address maker;\n    address taker;\n    uint dai;\n    uint earliestTermination;\n    uint id;\n    uint32 startPriceCents;\n    uint32 milliMarginRatio;\n    uint32 kiloMinimumPriceDeltaRatio;\n  }\n\n  uint64[] public offerIds;\n  uint64[] public escrowIds;\n  uint64 public currentId = 0;\n\n  mapping (uint64 => Offer) public offers;\n  mapping (uint64 => Escrow) public escrows;\n\n\n  function createOffer(string _currency, uint _dai) public {\n    // todo dai.transferFrom(msg.sender, self, _dai);\n    offers[currentId] = Offer(msg.sender, _currency, _dai, offerIds.push(currentId) - 1);\n    NewOffer();\n  }\n\n  function _deleteOffer(uint64 _offerId) internal {\n    uint listIndex = offers[_offerId].listIndex;\n    offerIds[listIndex] = offerIds[offerIds.length - 1];\n    offerIds.length --;\n    delete offers[_offerId];\n    offers[offerIds[listIndex]].listIndex = listIndex;\n  }\n\n  function deleteOffer(uint64 _offerId) external {\n    require(msg.sender == offers[_offerId].maker);\n    _deleteOffer(_offerId);\n    // todo return dai to user\n    RemovedOffer();\n  }\n}\n",
  "sourcePath": "/home/mark/TruffleProjects/AdversaryVue/contracts/Adversary.sol",
  "compiler": {
    "name": "solc",
    "version": "0.4.23+commit.124ca40d.Emscripten.clang"
  },
  "schemaVersion": "2.0.0",
  "updatedAt": "2018-04-22T10:50:07.276Z"
}